:0400000080310E2815
:100008007E1480318231F92280318331ED238031B1
:100018007E100900803110283A30840000308500B5
:100028000F30843125248031A030840000308500D1
:1000380046308431252480317E10200083313B2BCB
:1000480021002008031D29282A289728013020008C
:10005800A0002100210A20003228A035890B312870
:100068002008A100210891040130A0002100210AE4
:1000780020003F28A035890B3E282008FF3AA10020
:1000880021083E00B80521002108031D4C284D28F1
:10009800512810303E00900079292103031D55286E
:1000A80056285A2810303E0091007929023021063E
:1000B800031D5F286028642810303E0092007929CB
:1000C80003302106031D69286A286E2810303E0077
:1000D8009300792904302106031D73287428782891
:1000E80010303E009400792905302106031D7D2833
:1000F8007E28822810303E00950079290630210696
:10010800031D872888288C2810303E0096007929FE
:1001180007302106031D91289228962810303E00AA
:100128009700792979292003031D9B289C280829F1
:1001380001302000A0002100210A2000A428A035B9
:10014800890BA3282008A100210892040130A000EF
:100158002100210A2000B128A035890BB0282008E9
:10016800FF3AA10021083E00C30521002108031D14
:10017800BE28BF28C32810303E00980079292103E3
:10018800031DC728C828CC2810303E0099007929BB
:1001980002302106031DD128D228D62810303E006F
:1001A8009A00792903302106031DDB28DC28E02882
:1001B80010303E009B00792904302106031DE528F4
:1001C800E628EA2810303E009C00792905302106EF
:1001D800031DEF28F028F42810303E009D007929EF
:1001E80006302106031DF928FA28FE2810303E00A3
:1001F8009E00792907302106031D03290429962822
:1002080010303E009F00792902302006031D0D2979
:100218000E29792901302000A0002100210A2000A0
:100228001629A035890B15292008A1002108930457
:100238000130A0002100210A20002329A035890BC4
:1002480022292008FF3AA10021083E00CE052100FE
:100258002108031D30293129352910303E00A0001E
:1002680079292103031D39293A293E2910303E00F6
:10027800A100792902302106031D43294429482970
:1002880010303E00A200792903302106031D4D29B4
:100298004E29522910303E00A30079290430210646
:1002A800031D572958295C2910303E00A4007929DC
:1002B80005302106031D61296229662910303E0098
:1002C800A500792906302106031D6B296C297029A0
:1002D80010303E00A600792907302106031D752934
:1002E8007629962810303E00A70022009E169D17FA
:1002F800080000302000AC000030AB000030AA003D
:100308000030A900230822042104200403198D29A0
:100318008E29CF29AD01AD0A9C290130A035A10D48
:10032800A20DA30D890B92290130A8002808AD075A
:10033800A31F9F29A02991290130A935AA0DAB0D2A
:10034800AC0D890BA12923082702031DB529220812
:100358002602031DB52921082502031DB5292008F9
:100368002402031CB829B929C2292008A40221089B
:10037800A53B2208A63B2308A73B29140130A33636
:10038800A20CA10CA00C890BC3290130AD02031DDE
:10039800CE29CF29A0292C08A3002B08A2002A08BF
:1003A800A1002908A000080001302000B900E830A9
:1003B800B8004830B7000030B6003108A300300854
:1003C800A2002F08A1002E08A0003608B2003708A6
:1003D800B3003808B4003908B5000230B536B40C9B
:1003E800B30CB20C890BF2293508A7003408A60013
:1003F8003308A5003208A40081317D218131FF3006
:1004080020002007B600FF30213DB700FF30223D15
:10041800B800FF30233DB900370822009C002000B7
:10042800360822009B009F151E158331BA2381319F
:100438008031242081318231D72281318331FB23DD
:1004480081310800730872047104700403192D2A9D
:100458002E2A672AF901F90A3C2A0130F035F10DF4
:10046800F20DF30D890B322A0130F8007808F907EC
:10047800F31F3F2A402A312A73087702031D4E2AA8
:1004880072087602031D4E2A71087502031D4E2A52
:1004980070087402031C512A522A5A2A7008F4025E
:1004A8007108F53B7208F63B7308F73B0130F336E9
:1004B800F20CF10CF00C890B5B2A0130F902031DD8
:1004C800662A672A402A7708F3007608F20075083A
:1004D800F1007408F000080001302000C107003066
:1004E800C23D0030C33D0030C43D3B08F0003C082D
:1004F800F100F201F30107303A3E86008701403FE0
:10050800F400413FF500423FF600433FF7008231D7
:10051800262282317308720471047004031D952A1F
:10052800962AAE2A01302000C5070030C63D0030AB
:10053800C73D0030C83D013041025C30423B2630A7
:10054800433B0530443B031CAA2AAB2AAE2A84311C
:100558002F24823108002000A601C62A2208A40000
:100568002108A30026082307840024080318240A66
:100578008500000884311424823101302000A30052
:100588002308A6072208A4002108A3002608230799
:10059800840024080318240A85001200031DD52AA4
:1005A800D62AB22A080021002208031DDC2ADD2AE7
:1005B800E12A23083D00CB00F52A2203031DE52A82
:1005C800E62AEB2A2308083E3D00CB00F52A023034
:1005D8002206031DF02AF12AF52A2308103E3D00C1
:1005E800CB0022001D169D1708002E008F1EFD2A25
:1005F800FE2A192B83311A238231F30021002408A3
:10060800031D072B082B192B6508A53E86008701BB
:10061800730881000130F2007208E5074030650276
:10062800031C172B182B192BE5010800F1012200D8
:100638001D1D1F2B202B282B1D08F1001908F10068
:1006480001302100A400392B9D1C2B2B2C2B352B82
:10065800EF30F00070089D051D1602302100A4003F
:10066800392B1908F1002100A40171080800003095
:100678002000B1000030B0009630AF000030AE006E
:100688008131D8218331D7302000A1008330A200E6
:100698008231AF22833184311E24833183315B233D
:1006A8008331843108248331522B80310E28200075
:1006B80044084006031D6A2B43083F06031D6A2BA6
:1006C80042083E06031D6A2B41083D0603196D2B9F
:1006D8006E2B5B2B07303A3E86008701403FBD00FA
:1006E800413FBE00423FBF00433FC0000800013009
:1006F80025009C009A01FA30990074309A009A17E4
:100708002E009A160B1B892B8A2B8B2B0B178B1BF6
:100718008E2B8F2B902B8B17901A932B942B9A2B15
:10072800DF302000A00020082E00900508002000DF
:10073800BA010030BC003230BB000030C0000030CD
:10074800BF000030BE000030BD000030C4000030E3
:10075800C3000030C2000030C1000030C8000030C3
:10076800C7000030C6000030C50008000130210075
:10077800A0000730A1000130A2000630A30020002D
:10078800A1012108A53E8600870181010130A00052
:100798002008A10740302102031CD32BD42BC52BE2
:1007A8002100E5010800533465347234693461343A
:1007B8006C3420344C346F346734203453347434FC
:1007C8006134723474346534643421340D340A3439
:1007D80000342E00901EF12BF22BFA2B823170225E
:1007E8008331DF30FA007A082E00900508002E00C9
:1007F80099160B1B002C012C022C0B178B1B052C9C
:10080800062C072C8B17080084312B248431003ADE
:1008180003190F2C102C132C01302000BA020800E9
:100828002000A000200822009A009E1C1C2C1D2CD1
:10083800192C080083319B23843183317B23843135
:100848000800640080010131890B262C0034200047
:0C0858003A083F39080020003A17080059
:020000040001F9
:0A000E008C3FFF3F9F3FFF3FFF3F85
:00000001FF
